{
  "abi": [
    {
      "inputs": [
        {
          "internalType": "address",
          "name": "_vrfCoordinator",
          "type": "address"
        },
        {
          "internalType": "bytes32",
          "name": "_keyhash",
          "type": "bytes32"
        },
        {
          "internalType": "uint64",
          "name": "_subscriptionId",
          "type": "uint64"
        }
      ],
      "stateMutability": "nonpayable",
      "type": "constructor"
    },
    {
      "inputs": [
        {
          "internalType": "address",
          "name": "have",
          "type": "address"
        },
        {
          "internalType": "address",
          "name": "want",
          "type": "address"
        }
      ],
      "name": "OnlyCoordinatorCanFulfill",
      "type": "error"
    },
    {
      "anonymous": false,
      "inputs": [
        {
          "indexed": true,
          "internalType": "address",
          "name": "sender",
          "type": "address"
        },
        {
          "indexed": false,
          "internalType": "uint256",
          "name": "amount",
          "type": "uint256"
        }
      ],
      "name": "Received",
      "type": "event"
    },
    {
      "anonymous": false,
      "inputs": [
        {
          "indexed": false,
          "internalType": "uint256",
          "name": "requestId",
          "type": "uint256"
        }
      ],
      "name": "RequestedRandomness",
      "type": "event"
    },
    {
      "anonymous": false,
      "inputs": [
        {
          "indexed": true,
          "internalType": "uint256",
          "name": "gameId",
          "type": "uint256"
        },
        {
          "indexed": false,
          "internalType": "address",
          "name": "player",
          "type": "address"
        },
        {
          "indexed": false,
          "internalType": "uint256",
          "name": "amount",
          "type": "uint256"
        },
        {
          "indexed": false,
          "internalType": "bool",
          "name": "won",
          "type": "bool"
        }
      ],
      "name": "Result",
      "type": "event"
    },
    {
      "anonymous": false,
      "inputs": [
        {
          "indexed": false,
          "internalType": "address",
          "name": "admin",
          "type": "address"
        },
        {
          "indexed": false,
          "internalType": "uint256",
          "name": "amount",
          "type": "uint256"
        }
      ],
      "name": "Withdraw",
      "type": "event"
    },
    {
      "inputs": [],
      "name": "gameCount",
      "outputs": [
        {
          "internalType": "uint256",
          "name": "",
          "type": "uint256"
        }
      ],
      "stateMutability": "view",
      "type": "function"
    },
    {
      "inputs": [
        {
          "internalType": "uint256",
          "name": "",
          "type": "uint256"
        }
      ],
      "name": "games",
      "outputs": [
        {
          "internalType": "uint256",
          "name": "id",
          "type": "uint256"
        },
        {
          "internalType": "bool",
          "name": "head",
          "type": "bool"
        },
        {
          "internalType": "uint256",
          "name": "amount",
          "type": "uint256"
        },
        {
          "internalType": "address payable",
          "name": "player",
          "type": "address"
        }
      ],
      "stateMutability": "view",
      "type": "function"
    },
    {
      "inputs": [
        {
          "internalType": "bool",
          "name": "_head",
          "type": "bool"
        }
      ],
      "name": "play",
      "outputs": [
        {
          "internalType": "bool",
          "name": "",
          "type": "bool"
        }
      ],
      "stateMutability": "payable",
      "type": "function"
    },
    {
      "inputs": [
        {
          "internalType": "uint256",
          "name": "requestId",
          "type": "uint256"
        },
        {
          "internalType": "uint256[]",
          "name": "randomWords",
          "type": "uint256[]"
        }
      ],
      "name": "rawFulfillRandomWords",
      "outputs": [],
      "stateMutability": "nonpayable",
      "type": "function"
    },
    {
      "inputs": [],
      "name": "requestRandomWords",
      "outputs": [],
      "stateMutability": "nonpayable",
      "type": "function"
    },
    {
      "inputs": [
        {
          "internalType": "uint256",
          "name": "amount",
          "type": "uint256"
        }
      ],
      "name": "withdrawEther",
      "outputs": [],
      "stateMutability": "nonpayable",
      "type": "function"
    },
    {
      "stateMutability": "payable",
      "type": "receive"
    }
  ],
  "bytecode": "60a060405260038054600160401b600160901b031916709896800000003200030000000000000000179055600060055534801561003b57600080fd5b50604051610b3d380380610b3d83398101604081905261005a916100b3565b6001600160a01b039092166080819052600180546001600160a01b031990811690921790556000805490911633179055600255600380546001600160401b039092166001600160401b031990921691909117905561010e565b6000806000606084860312156100c857600080fd5b83516001600160a01b03811681146100df57600080fd5b6020850151604086015191945092506001600160401b038116811461010357600080fd5b809150509250925092565b608051610a0d610130600039600081816101c001526102020152610a0d6000f3fe6080604052600436106100595760003560e01c8063117a5b901461009a5780631fe543e3146101175780633bed33ce146101395780634d1975b414610159578063c23c87d51461017d578063e0c86289146101a057600080fd5b366100955760405134815233907f88a5966d370b9919b20f3e2c13ff65706f196a4e32cc2c12bf57088f885258749060200160405180910390a2005b600080fd5b3480156100a657600080fd5b506100e96100b53660046107e9565b6006602052600090815260409020805460018201546002830154600390930154919260ff909116916001600160a01b031684565b604080519485529215156020850152918301526001600160a01b031660608201526080015b60405180910390f35b34801561012357600080fd5b50610137610132366004610818565b6101b5565b005b34801561014557600080fd5b506101376101543660046107e9565b610242565b34801561016557600080fd5b5061016f60055481565b60405190815260200161010e565b61019061018b3660046108e2565b610374565b604051901515815260200161010e565b3480156101ac57600080fd5b5061013761064f565b336001600160a01b037f000000000000000000000000000000000000000000000000000000000000000016146102345760405163073e64fd60e21b81523360048201526001600160a01b037f00000000000000000000000000000000000000000000000000000000000000001660248201526044015b60405180910390fd5b61023e8282610793565b5050565b6000546001600160a01b031633146102965760405162461bcd60e51b815260206004820152601760248201527631b0b63632b91034b9903737ba103a34329030b236b4b760491b604482015260640161022b565b804710156102f05760405162461bcd60e51b815260206004820152602160248201527f42657474696e6747616d653a20696e73756666696369656e742062616c616e636044820152606560f81b606482015260840161022b565b600080546040516001600160a01b039091169183156108fc02918491818181858888f19350505050158015610329573d6000803e3d6000fd5b50600054604080516001600160a01b039092168252602082018390527f884edad9ce6fa2440d8a54cc123490eb96d2768479d49ff9c7366125a942436491015b60405180910390a150565b600066038d7ea4c680003410156103e55760405162461bcd60e51b815260206004820152602f60248201527f42657474696e6747616d653a206d696e696d756d20616c6c6f7765642062657460448201526e1034b99018171818189032ba3432b960891b606482015260840161022b565b6103f0346002610921565b47101561044f5760405162461bcd60e51b815260206004820152602760248201527f42657474696e6747616d653a20696e73756666696369656e74207661756c742060448201526662616c616e636560c81b606482015260840161022b565b6004546104ac5760405162461bcd60e51b815260206004820152602560248201527f42657474696e6747616d653a2072616e646f6d20776f72647320756e617661696044820152646c61626c6560d81b606482015260840161022b565b600580549060006104bc83610940565b9091555050604080516080810182526005548082528415156020808401918252348486019081523360608601908152600094855260069092529483209351845590516001808501805460ff1916921515929092179091559351600284015551600390920180546001600160a01b0319166001600160a01b039093169290921790915560048054919290916105509190610959565b8154811061056057610560610970565b90600052602060002001549050600480548061057e5761057e610986565b600190038181906000526020600020016000905590556004805490506014036105a9576105a961064f565b60006105b660028361099c565b159050831515811480156106045760006105d1346002610921565b604051909150339082156108fc029083906000818181858888f19350505050158015610601573d6000803e3d6000fd5b50505b600554604080513381523460208201528315158183015290517ff83ba849142075c91a16090145a5ae9453a3db63db6f4d0320e28649ac4316e59181900360600190a2949350505050565b6000546001600160a01b031633146106a35760405162461bcd60e51b815260206004820152601760248201527631b0b63632b91034b9903737ba103a34329030b236b4b760491b604482015260640161022b565b6001546002546003546040516305d3b1d360e41b8152600481019290925267ffffffffffffffff8116602483015261ffff68010000000000000000820416604483015263ffffffff600160701b820481166064840152600160501b9091041660848201526000916001600160a01b031690635d3b1d309060a4016020604051808303816000875af115801561073c573d6000803e3d6000fd5b505050506040513d601f19601f8201168201806040525081019061076091906109be565b90507f5d7d0431c4991fcc9f63f03ad0ead4128b866a8ed115a818b6d87a3afedb72648160405161036991815260200190565b60005b81518110156107e45760048282815181106107b3576107b3610970565b60209081029190910181015182546001810184556000938452919092200155806107dc81610940565b915050610796565b505050565b6000602082840312156107fb57600080fd5b5035919050565b634e487b7160e01b600052604160045260246000fd5b6000806040838503121561082b57600080fd5b8235915060208084013567ffffffffffffffff8082111561084b57600080fd5b818601915086601f83011261085f57600080fd5b81358181111561087157610871610802565b8060051b604051601f19603f8301168101818110858211171561089657610896610802565b6040529182528482019250838101850191898311156108b457600080fd5b938501935b828510156108d2578435845293850193928501926108b9565b8096505050505050509250929050565b6000602082840312156108f457600080fd5b8135801515811461090457600080fd5b9392505050565b634e487b7160e01b600052601160045260246000fd5b600081600019048311821515161561093b5761093b61090b565b500290565b6000600182016109525761095261090b565b5060010190565b60008282101561096b5761096b61090b565b500390565b634e487b7160e01b600052603260045260246000fd5b634e487b7160e01b600052603160045260246000fd5b6000826109b957634e487b7160e01b600052601260045260246000fd5b500690565b6000602082840312156109d057600080fd5b505191905056fea2646970667358221220b23b1ece540080e20a4207df2a877a1b72dd81a24484631ab8a2fb1801939a2e64736f6c634300080f0033",
  "bytecodeSha1": "1f93d2b49846f11c0d4b97f57098e0bc6da1b485",
  "compiler": {
    "evm_version": "istanbul",
    "optimizer": {
      "enabled": true,
      "runs": 200
    },
    "version": "0.8.15+commit.e14f2714"
  },
  "contractName": "BettingGame",
  "language": "Solidity",
  "natspec": {
    "kind": "dev",
    "methods": {},
    "version": 1
  },
  "opcodes": "PUSH1 0x80 PUSH1 0x40 MSTORE PUSH1 0x4 CALLDATASIZE LT PUSH2 0x59 JUMPI PUSH1 0x0 CALLDATALOAD PUSH1 0xE0 SHR DUP1 PUSH4 0x117A5B90 EQ PUSH2 0x9A JUMPI DUP1 PUSH4 0x1FE543E3 EQ PUSH2 0x117 JUMPI DUP1 PUSH4 0x3BED33CE EQ PUSH2 0x139 JUMPI DUP1 PUSH4 0x4D1975B4 EQ PUSH2 0x159 JUMPI DUP1 PUSH4 0xC23C87D5 EQ PUSH2 0x17D JUMPI DUP1 PUSH4 0xE0C86289 EQ PUSH2 0x1A0 JUMPI PUSH1 0x0 DUP1 REVERT JUMPDEST CALLDATASIZE PUSH2 0x95 JUMPI PUSH1 0x40 MLOAD CALLVALUE DUP2 MSTORE CALLER SWAP1 PUSH32 0x88A5966D370B9919B20F3E2C13FF65706F196A4E32CC2C12BF57088F88525874 SWAP1 PUSH1 0x20 ADD PUSH1 0x40 MLOAD DUP1 SWAP2 SUB SWAP1 LOG2 STOP JUMPDEST PUSH1 0x0 DUP1 REVERT JUMPDEST CALLVALUE DUP1 ISZERO PUSH2 0xA6 JUMPI PUSH1 0x0 DUP1 REVERT JUMPDEST POP PUSH2 0xE9 PUSH2 0xB5 CALLDATASIZE PUSH1 0x4 PUSH2 0x7E9 JUMP JUMPDEST PUSH1 0x6 PUSH1 0x20 MSTORE PUSH1 0x0 SWAP1 DUP2 MSTORE PUSH1 0x40 SWAP1 KECCAK256 DUP1 SLOAD PUSH1 0x1 DUP3 ADD SLOAD PUSH1 0x2 DUP4 ADD SLOAD PUSH1 0x3 SWAP1 SWAP4 ADD SLOAD SWAP2 SWAP3 PUSH1 0xFF SWAP1 SWAP2 AND SWAP2 PUSH1 0x1 PUSH1 0x1 PUSH1 0xA0 SHL SUB AND DUP5 JUMP JUMPDEST PUSH1 0x40 DUP1 MLOAD SWAP5 DUP6 MSTORE SWAP3 ISZERO ISZERO PUSH1 0x20 DUP6 ADD MSTORE SWAP2 DUP4 ADD MSTORE PUSH1 0x1 PUSH1 0x1 PUSH1 0xA0 SHL SUB AND PUSH1 0x60 DUP3 ADD MSTORE PUSH1 0x80 ADD JUMPDEST PUSH1 0x40 MLOAD DUP1 SWAP2 SUB SWAP1 RETURN JUMPDEST CALLVALUE DUP1 ISZERO PUSH2 0x123 JUMPI PUSH1 0x0 DUP1 REVERT JUMPDEST POP PUSH2 0x137 PUSH2 0x132 CALLDATASIZE PUSH1 0x4 PUSH2 0x818 JUMP JUMPDEST PUSH2 0x1B5 JUMP JUMPDEST STOP JUMPDEST CALLVALUE DUP1 ISZERO PUSH2 0x145 JUMPI PUSH1 0x0 DUP1 REVERT JUMPDEST POP PUSH2 0x137 PUSH2 0x154 CALLDATASIZE PUSH1 0x4 PUSH2 0x7E9 JUMP JUMPDEST PUSH2 0x242 JUMP JUMPDEST CALLVALUE DUP1 ISZERO PUSH2 0x165 JUMPI PUSH1 0x0 DUP1 REVERT JUMPDEST POP PUSH2 0x16F PUSH1 0x5 SLOAD DUP2 JUMP JUMPDEST PUSH1 0x40 MLOAD SWAP1 DUP2 MSTORE PUSH1 0x20 ADD PUSH2 0x10E JUMP JUMPDEST PUSH2 0x190 PUSH2 0x18B CALLDATASIZE PUSH1 0x4 PUSH2 0x8E2 JUMP JUMPDEST PUSH2 0x374 JUMP JUMPDEST PUSH1 0x40 MLOAD SWAP1 ISZERO ISZERO DUP2 MSTORE PUSH1 0x20 ADD PUSH2 0x10E JUMP JUMPDEST CALLVALUE DUP1 ISZERO PUSH2 0x1AC JUMPI PUSH1 0x0 DUP1 REVERT JUMPDEST POP PUSH2 0x137 PUSH2 0x64F JUMP JUMPDEST CALLER PUSH1 0x1 PUSH1 0x1 PUSH1 0xA0 SHL SUB PUSH32 0x0 AND EQ PUSH2 0x234 JUMPI PUSH1 0x40 MLOAD PUSH4 0x73E64FD PUSH1 0xE2 SHL DUP2 MSTORE CALLER PUSH1 0x4 DUP3 ADD MSTORE PUSH1 0x1 PUSH1 0x1 PUSH1 0xA0 SHL SUB PUSH32 0x0 AND PUSH1 0x24 DUP3 ADD MSTORE PUSH1 0x44 ADD JUMPDEST PUSH1 0x40 MLOAD DUP1 SWAP2 SUB SWAP1 REVERT JUMPDEST PUSH2 0x23E DUP3 DUP3 PUSH2 0x793 JUMP JUMPDEST POP POP JUMP JUMPDEST PUSH1 0x0 SLOAD PUSH1 0x1 PUSH1 0x1 PUSH1 0xA0 SHL SUB AND CALLER EQ PUSH2 0x296 JUMPI PUSH1 0x40 MLOAD PUSH3 0x461BCD PUSH1 0xE5 SHL DUP2 MSTORE PUSH1 0x20 PUSH1 0x4 DUP3 ADD MSTORE PUSH1 0x17 PUSH1 0x24 DUP3 ADD MSTORE PUSH23 0x31B0B63632B91034B9903737BA103A34329030B236B4B7 PUSH1 0x49 SHL PUSH1 0x44 DUP3 ADD MSTORE PUSH1 0x64 ADD PUSH2 0x22B JUMP JUMPDEST DUP1 SELFBALANCE LT ISZERO PUSH2 0x2F0 JUMPI PUSH1 0x40 MLOAD PUSH3 0x461BCD PUSH1 0xE5 SHL DUP2 MSTORE PUSH1 0x20 PUSH1 0x4 DUP3 ADD MSTORE PUSH1 0x21 PUSH1 0x24 DUP3 ADD MSTORE PUSH32 0x42657474696E6747616D653A20696E73756666696369656E742062616C616E63 PUSH1 0x44 DUP3 ADD MSTORE PUSH1 0x65 PUSH1 0xF8 SHL PUSH1 0x64 DUP3 ADD MSTORE PUSH1 0x84 ADD PUSH2 0x22B JUMP JUMPDEST PUSH1 0x0 DUP1 SLOAD PUSH1 0x40 MLOAD PUSH1 0x1 PUSH1 0x1 PUSH1 0xA0 SHL SUB SWAP1 SWAP2 AND SWAP2 DUP4 ISZERO PUSH2 0x8FC MUL SWAP2 DUP5 SWAP2 DUP2 DUP2 DUP2 DUP6 DUP9 DUP9 CALL SWAP4 POP POP POP POP ISZERO DUP1 ISZERO PUSH2 0x329 JUMPI RETURNDATASIZE PUSH1 0x0 DUP1 RETURNDATACOPY RETURNDATASIZE PUSH1 0x0 REVERT JUMPDEST POP PUSH1 0x0 SLOAD PUSH1 0x40 DUP1 MLOAD PUSH1 0x1 PUSH1 0x1 PUSH1 0xA0 SHL SUB SWAP1 SWAP3 AND DUP3 MSTORE PUSH1 0x20 DUP3 ADD DUP4 SWAP1 MSTORE PUSH32 0x884EDAD9CE6FA2440D8A54CC123490EB96D2768479D49FF9C7366125A9424364 SWAP2 ADD JUMPDEST PUSH1 0x40 MLOAD DUP1 SWAP2 SUB SWAP1 LOG1 POP JUMP JUMPDEST PUSH1 0x0 PUSH7 0x38D7EA4C68000 CALLVALUE LT ISZERO PUSH2 0x3E5 JUMPI PUSH1 0x40 MLOAD PUSH3 0x461BCD PUSH1 0xE5 SHL DUP2 MSTORE PUSH1 0x20 PUSH1 0x4 DUP3 ADD MSTORE PUSH1 0x2F PUSH1 0x24 DUP3 ADD MSTORE PUSH32 0x42657474696E6747616D653A206D696E696D756D20616C6C6F77656420626574 PUSH1 0x44 DUP3 ADD MSTORE PUSH15 0x1034B99018171818189032BA3432B9 PUSH1 0x89 SHL PUSH1 0x64 DUP3 ADD MSTORE PUSH1 0x84 ADD PUSH2 0x22B JUMP JUMPDEST PUSH2 0x3F0 CALLVALUE PUSH1 0x2 PUSH2 0x921 JUMP JUMPDEST SELFBALANCE LT ISZERO PUSH2 0x44F JUMPI PUSH1 0x40 MLOAD PUSH3 0x461BCD PUSH1 0xE5 SHL DUP2 MSTORE PUSH1 0x20 PUSH1 0x4 DUP3 ADD MSTORE PUSH1 0x27 PUSH1 0x24 DUP3 ADD MSTORE PUSH32 0x42657474696E6747616D653A20696E73756666696369656E74207661756C7420 PUSH1 0x44 DUP3 ADD MSTORE PUSH7 0x62616C616E6365 PUSH1 0xC8 SHL PUSH1 0x64 DUP3 ADD MSTORE PUSH1 0x84 ADD PUSH2 0x22B JUMP JUMPDEST PUSH1 0x4 SLOAD PUSH2 0x4AC JUMPI PUSH1 0x40 MLOAD PUSH3 0x461BCD PUSH1 0xE5 SHL DUP2 MSTORE PUSH1 0x20 PUSH1 0x4 DUP3 ADD MSTORE PUSH1 0x25 PUSH1 0x24 DUP3 ADD MSTORE PUSH32 0x42657474696E6747616D653A2072616E646F6D20776F72647320756E61766169 PUSH1 0x44 DUP3 ADD MSTORE PUSH5 0x6C61626C65 PUSH1 0xD8 SHL PUSH1 0x64 DUP3 ADD MSTORE PUSH1 0x84 ADD PUSH2 0x22B JUMP JUMPDEST PUSH1 0x5 DUP1 SLOAD SWAP1 PUSH1 0x0 PUSH2 0x4BC DUP4 PUSH2 0x940 JUMP JUMPDEST SWAP1 SWAP2 SSTORE POP POP PUSH1 0x40 DUP1 MLOAD PUSH1 0x80 DUP2 ADD DUP3 MSTORE PUSH1 0x5 SLOAD DUP1 DUP3 MSTORE DUP5 ISZERO ISZERO PUSH1 0x20 DUP1 DUP5 ADD SWAP2 DUP3 MSTORE CALLVALUE DUP5 DUP7 ADD SWAP1 DUP2 MSTORE CALLER PUSH1 0x60 DUP7 ADD SWAP1 DUP2 MSTORE PUSH1 0x0 SWAP5 DUP6 MSTORE PUSH1 0x6 SWAP1 SWAP3 MSTORE SWAP5 DUP4 KECCAK256 SWAP4 MLOAD DUP5 SSTORE SWAP1 MLOAD PUSH1 0x1 DUP1 DUP6 ADD DUP1 SLOAD PUSH1 0xFF NOT AND SWAP3 ISZERO ISZERO SWAP3 SWAP1 SWAP3 OR SWAP1 SWAP2 SSTORE SWAP4 MLOAD PUSH1 0x2 DUP5 ADD SSTORE MLOAD PUSH1 0x3 SWAP1 SWAP3 ADD DUP1 SLOAD PUSH1 0x1 PUSH1 0x1 PUSH1 0xA0 SHL SUB NOT AND PUSH1 0x1 PUSH1 0x1 PUSH1 0xA0 SHL SUB SWAP1 SWAP4 AND SWAP3 SWAP1 SWAP3 OR SWAP1 SWAP2 SSTORE PUSH1 0x4 DUP1 SLOAD SWAP2 SWAP3 SWAP1 SWAP2 PUSH2 0x550 SWAP2 SWAP1 PUSH2 0x959 JUMP JUMPDEST DUP2 SLOAD DUP2 LT PUSH2 0x560 JUMPI PUSH2 0x560 PUSH2 0x970 JUMP JUMPDEST SWAP1 PUSH1 0x0 MSTORE PUSH1 0x20 PUSH1 0x0 KECCAK256 ADD SLOAD SWAP1 POP PUSH1 0x4 DUP1 SLOAD DUP1 PUSH2 0x57E JUMPI PUSH2 0x57E PUSH2 0x986 JUMP JUMPDEST PUSH1 0x1 SWAP1 SUB DUP2 DUP2 SWAP1 PUSH1 0x0 MSTORE PUSH1 0x20 PUSH1 0x0 KECCAK256 ADD PUSH1 0x0 SWAP1 SSTORE SWAP1 SSTORE PUSH1 0x4 DUP1 SLOAD SWAP1 POP PUSH1 0x14 SUB PUSH2 0x5A9 JUMPI PUSH2 0x5A9 PUSH2 0x64F JUMP JUMPDEST PUSH1 0x0 PUSH2 0x5B6 PUSH1 0x2 DUP4 PUSH2 0x99C JUMP JUMPDEST ISZERO SWAP1 POP DUP4 ISZERO ISZERO DUP2 EQ DUP1 ISZERO PUSH2 0x604 JUMPI PUSH1 0x0 PUSH2 0x5D1 CALLVALUE PUSH1 0x2 PUSH2 0x921 JUMP JUMPDEST PUSH1 0x40 MLOAD SWAP1 SWAP2 POP CALLER SWAP1 DUP3 ISZERO PUSH2 0x8FC MUL SWAP1 DUP4 SWAP1 PUSH1 0x0 DUP2 DUP2 DUP2 DUP6 DUP9 DUP9 CALL SWAP4 POP POP POP POP ISZERO DUP1 ISZERO PUSH2 0x601 JUMPI RETURNDATASIZE PUSH1 0x0 DUP1 RETURNDATACOPY RETURNDATASIZE PUSH1 0x0 REVERT JUMPDEST POP POP JUMPDEST PUSH1 0x5 SLOAD PUSH1 0x40 DUP1 MLOAD CALLER DUP2 MSTORE CALLVALUE PUSH1 0x20 DUP3 ADD MSTORE DUP4 ISZERO ISZERO DUP2 DUP4 ADD MSTORE SWAP1 MLOAD PUSH32 0xF83BA849142075C91A16090145A5AE9453A3DB63DB6F4D0320E28649AC4316E5 SWAP2 DUP2 SWAP1 SUB PUSH1 0x60 ADD SWAP1 LOG2 SWAP5 SWAP4 POP POP POP POP JUMP JUMPDEST PUSH1 0x0 SLOAD PUSH1 0x1 PUSH1 0x1 PUSH1 0xA0 SHL SUB AND CALLER EQ PUSH2 0x6A3 JUMPI PUSH1 0x40 MLOAD PUSH3 0x461BCD PUSH1 0xE5 SHL DUP2 MSTORE PUSH1 0x20 PUSH1 0x4 DUP3 ADD MSTORE PUSH1 0x17 PUSH1 0x24 DUP3 ADD MSTORE PUSH23 0x31B0B63632B91034B9903737BA103A34329030B236B4B7 PUSH1 0x49 SHL PUSH1 0x44 DUP3 ADD MSTORE PUSH1 0x64 ADD PUSH2 0x22B JUMP JUMPDEST PUSH1 0x1 SLOAD PUSH1 0x2 SLOAD PUSH1 0x3 SLOAD PUSH1 0x40 MLOAD PUSH4 0x5D3B1D3 PUSH1 0xE4 SHL DUP2 MSTORE PUSH1 0x4 DUP2 ADD SWAP3 SWAP1 SWAP3 MSTORE PUSH8 0xFFFFFFFFFFFFFFFF DUP2 AND PUSH1 0x24 DUP4 ADD MSTORE PUSH2 0xFFFF PUSH9 0x10000000000000000 DUP3 DIV AND PUSH1 0x44 DUP4 ADD MSTORE PUSH4 0xFFFFFFFF PUSH1 0x1 PUSH1 0x70 SHL DUP3 DIV DUP2 AND PUSH1 0x64 DUP5 ADD MSTORE PUSH1 0x1 PUSH1 0x50 SHL SWAP1 SWAP2 DIV AND PUSH1 0x84 DUP3 ADD MSTORE PUSH1 0x0 SWAP2 PUSH1 0x1 PUSH1 0x1 PUSH1 0xA0 SHL SUB AND SWAP1 PUSH4 0x5D3B1D30 SWAP1 PUSH1 0xA4 ADD PUSH1 0x20 PUSH1 0x40 MLOAD DUP1 DUP4 SUB DUP2 PUSH1 0x0 DUP8 GAS CALL ISZERO DUP1 ISZERO PUSH2 0x73C JUMPI RETURNDATASIZE PUSH1 0x0 DUP1 RETURNDATACOPY RETURNDATASIZE PUSH1 0x0 REVERT JUMPDEST POP POP POP POP PUSH1 0x40 MLOAD RETURNDATASIZE PUSH1 0x1F NOT PUSH1 0x1F DUP3 ADD AND DUP3 ADD DUP1 PUSH1 0x40 MSTORE POP DUP2 ADD SWAP1 PUSH2 0x760 SWAP2 SWAP1 PUSH2 0x9BE JUMP JUMPDEST SWAP1 POP PUSH32 0x5D7D0431C4991FCC9F63F03AD0EAD4128B866A8ED115A818B6D87A3AFEDB7264 DUP2 PUSH1 0x40 MLOAD PUSH2 0x369 SWAP2 DUP2 MSTORE PUSH1 0x20 ADD SWAP1 JUMP JUMPDEST PUSH1 0x0 JUMPDEST DUP2 MLOAD DUP2 LT ISZERO PUSH2 0x7E4 JUMPI PUSH1 0x4 DUP3 DUP3 DUP2 MLOAD DUP2 LT PUSH2 0x7B3 JUMPI PUSH2 0x7B3 PUSH2 0x970 JUMP JUMPDEST PUSH1 0x20 SWAP1 DUP2 MUL SWAP2 SWAP1 SWAP2 ADD DUP2 ADD MLOAD DUP3 SLOAD PUSH1 0x1 DUP2 ADD DUP5 SSTORE PUSH1 0x0 SWAP4 DUP5 MSTORE SWAP2 SWAP1 SWAP3 KECCAK256 ADD SSTORE DUP1 PUSH2 0x7DC DUP2 PUSH2 0x940 JUMP JUMPDEST SWAP2 POP POP PUSH2 0x796 JUMP JUMPDEST POP POP POP JUMP JUMPDEST PUSH1 0x0 PUSH1 0x20 DUP3 DUP5 SUB SLT ISZERO PUSH2 0x7FB JUMPI PUSH1 0x0 DUP1 REVERT JUMPDEST POP CALLDATALOAD SWAP2 SWAP1 POP JUMP JUMPDEST PUSH4 0x4E487B71 PUSH1 0xE0 SHL PUSH1 0x0 MSTORE PUSH1 0x41 PUSH1 0x4 MSTORE PUSH1 0x24 PUSH1 0x0 REVERT JUMPDEST PUSH1 0x0 DUP1 PUSH1 0x40 DUP4 DUP6 SUB SLT ISZERO PUSH2 0x82B JUMPI PUSH1 0x0 DUP1 REVERT JUMPDEST DUP3 CALLDATALOAD SWAP2 POP PUSH1 0x20 DUP1 DUP5 ADD CALLDATALOAD PUSH8 0xFFFFFFFFFFFFFFFF DUP1 DUP3 GT ISZERO PUSH2 0x84B JUMPI PUSH1 0x0 DUP1 REVERT JUMPDEST DUP2 DUP7 ADD SWAP2 POP DUP7 PUSH1 0x1F DUP4 ADD SLT PUSH2 0x85F JUMPI PUSH1 0x0 DUP1 REVERT JUMPDEST DUP2 CALLDATALOAD DUP2 DUP2 GT ISZERO PUSH2 0x871 JUMPI PUSH2 0x871 PUSH2 0x802 JUMP JUMPDEST DUP1 PUSH1 0x5 SHL PUSH1 0x40 MLOAD PUSH1 0x1F NOT PUSH1 0x3F DUP4 ADD AND DUP2 ADD DUP2 DUP2 LT DUP6 DUP3 GT OR ISZERO PUSH2 0x896 JUMPI PUSH2 0x896 PUSH2 0x802 JUMP JUMPDEST PUSH1 0x40 MSTORE SWAP2 DUP3 MSTORE DUP5 DUP3 ADD SWAP3 POP DUP4 DUP2 ADD DUP6 ADD SWAP2 DUP10 DUP4 GT ISZERO PUSH2 0x8B4 JUMPI PUSH1 0x0 DUP1 REVERT JUMPDEST SWAP4 DUP6 ADD SWAP4 JUMPDEST DUP3 DUP6 LT ISZERO PUSH2 0x8D2 JUMPI DUP5 CALLDATALOAD DUP5 MSTORE SWAP4 DUP6 ADD SWAP4 SWAP3 DUP6 ADD SWAP3 PUSH2 0x8B9 JUMP JUMPDEST DUP1 SWAP7 POP POP POP POP POP POP POP SWAP3 POP SWAP3 SWAP1 POP JUMP JUMPDEST PUSH1 0x0 PUSH1 0x20 DUP3 DUP5 SUB SLT ISZERO PUSH2 0x8F4 JUMPI PUSH1 0x0 DUP1 REVERT JUMPDEST DUP2 CALLDATALOAD DUP1 ISZERO ISZERO DUP2 EQ PUSH2 0x904 JUMPI PUSH1 0x0 DUP1 REVERT JUMPDEST SWAP4 SWAP3 POP POP POP JUMP JUMPDEST PUSH4 0x4E487B71 PUSH1 0xE0 SHL PUSH1 0x0 MSTORE PUSH1 0x11 PUSH1 0x4 MSTORE PUSH1 0x24 PUSH1 0x0 REVERT JUMPDEST PUSH1 0x0 DUP2 PUSH1 0x0 NOT DIV DUP4 GT DUP3 ISZERO ISZERO AND ISZERO PUSH2 0x93B JUMPI PUSH2 0x93B PUSH2 0x90B JUMP JUMPDEST POP MUL SWAP1 JUMP JUMPDEST PUSH1 0x0 PUSH1 0x1 DUP3 ADD PUSH2 0x952 JUMPI PUSH2 0x952 PUSH2 0x90B JUMP JUMPDEST POP PUSH1 0x1 ADD SWAP1 JUMP JUMPDEST PUSH1 0x0 DUP3 DUP3 LT ISZERO PUSH2 0x96B JUMPI PUSH2 0x96B PUSH2 0x90B JUMP JUMPDEST POP SUB SWAP1 JUMP JUMPDEST PUSH4 0x4E487B71 PUSH1 0xE0 SHL PUSH1 0x0 MSTORE PUSH1 0x32 PUSH1 0x4 MSTORE PUSH1 0x24 PUSH1 0x0 REVERT JUMPDEST PUSH4 0x4E487B71 PUSH1 0xE0 SHL PUSH1 0x0 MSTORE PUSH1 0x31 PUSH1 0x4 MSTORE PUSH1 0x24 PUSH1 0x0 REVERT JUMPDEST PUSH1 0x0 DUP3 PUSH2 0x9B9 JUMPI PUSH4 0x4E487B71 PUSH1 0xE0 SHL PUSH1 0x0 MSTORE PUSH1 0x12 PUSH1 0x4 MSTORE PUSH1 0x24 PUSH1 0x0 REVERT JUMPDEST POP MOD SWAP1 JUMP JUMPDEST PUSH1 0x0 PUSH1 0x20 DUP3 DUP5 SUB SLT ISZERO PUSH2 0x9D0 JUMPI PUSH1 0x0 DUP1 REVERT JUMPDEST POP MLOAD SWAP2 SWAP1 POP JUMP INVALID LOG2 PUSH5 0x6970667358 0x22 SLT KECCAK256 0xB2 EXTCODESIZE 0x1E 0xCE SLOAD STOP DUP1 0xE2 EXP TIMESTAMP SMOD 0xDF 0x2A DUP8 PUSH27 0x1B72DD81A24484631AB8A2FB1801939A2E64736F6C634300080F00 CALLER ",
  "sha1": "cd12d50cb2521ce22c29666911773f77d0bd9de9",
  "source": "pragma solidity ^0.8.0;\n\nimport \"@chainlink/contracts/src/v0.8/interfaces/VRFCoordinatorV2Interface.sol\";\nimport \"@chainlink/contracts/src/v0.8/VRFConsumerBaseV2.sol\";\n\ncontract BettingGame is VRFConsumerBaseV2 {\n\n    address payable admin;\n\n    VRFCoordinatorV2Interface COORDINATOR;\n    bytes32 keyhash;\n    uint64 subscriptionId;\n    uint16 requestConfirmations = 3;\n    uint32 numWords = 50;\n    uint32 callbackGasLimit = 10 ** 7;\n\n    uint256[] randomWords;\n\n    uint256 public gameCount = 0;\n    mapping(uint256 => Game) public games;\n\n    struct Game {\n        uint256 id;\n        bool head;\n        uint256 amount;\n        address payable player;\n    }\n\n    event RequestedRandomness(uint256 requestId);\n    event Withdraw(address admin, uint256 amount);\n    event Received(address indexed sender, uint256 amount);\n    event Result(uint256 indexed gameId, address player, uint256 amount, bool won);\n\n    constructor(\n        address _vrfCoordinator,\n        bytes32 _keyhash,\n        uint64 _subscriptionId\n    ) VRFConsumerBaseV2(_vrfCoordinator) {\n        COORDINATOR = VRFCoordinatorV2Interface(_vrfCoordinator);\n        admin = payable(msg.sender);\n        keyhash = _keyhash;\n        subscriptionId = _subscriptionId;\n    }\n\n    receive() external payable {\n        emit Received(msg.sender, msg.value);\n    }\n\n    modifier onlyAdmin() {\n        require(msg.sender == admin, 'caller is not the admin');\n        _;\n    }\n\n    // _head represents whether player has chosen Head or not\n    function play(bool _head) public payable returns (bool){\n        require(msg.value >= 10 ** 15, \"BettingGame: minimum allowed bet is 0.001 ether\");\n        require(address(this).balance >= 2 * msg.value, \"BettingGame: insufficient vault balance\");\n        require(randomWords.length > 0, \"BettingGame: random words unavailable\");\n\n        gameCount++;\n        games[gameCount] = Game(gameCount, _head, msg.value, payable(msg.sender));\n\n        uint256 randomWord = randomWords[randomWords.length - 1];\n        randomWords.pop();\n\n        // Add more words to the array\n        if (randomWords.length == 20) {\n            requestRandomWords();\n        }\n\n        // Even randomWord represents HEADS, odd represents TAILS\n        bool head = randomWord % 2 == 0;\n        bool playerWon = head == _head;\n\n        if (playerWon) {\n            uint256 winAmount = 2 * msg.value;\n            payable(msg.sender).transfer(winAmount);\n        }\n\n        emit Result(gameCount, msg.sender, msg.value, playerWon);\n\n        return playerWon;\n    }\n\n    function requestRandomWords() public onlyAdmin {\n        // Will revert if subscription is not set and funded.\n        uint256 requestId = COORDINATOR.requestRandomWords(\n            keyhash,\n            subscriptionId,\n            requestConfirmations,\n            callbackGasLimit,\n            numWords\n        );\n\n        emit RequestedRandomness(requestId);\n    }\n\n    function fulfillRandomWords(\n        uint256 requestId,\n        uint256[] memory _randomWords\n    ) internal override {\n        for (uint i = 0; i < _randomWords.length; i++) {\n            randomWords.push(_randomWords[i]);\n        }\n    }\n\n    function withdrawEther(uint256 amount) external onlyAdmin {\n        require(address(this).balance >= amount, \"BettingGame: insufficient balance\");\n        admin.transfer(amount);\n\n        emit Withdraw(admin, amount);\n    }\n}\n",
  "sourcePath": "contracts/BettingGame.sol",
  "type": "contract"
}