{
  "abi": [
    {
      "inputs": [
        {
          "internalType": "address",
          "name": "_vrfCoordinator",
          "type": "address"
        },
        {
          "internalType": "address",
          "name": "_link",
          "type": "address"
        },
        {
          "internalType": "uint256",
          "name": "_fee",
          "type": "uint256"
        },
        {
          "internalType": "bytes32",
          "name": "_keyhash",
          "type": "bytes32"
        }
      ],
      "stateMutability": "nonpayable",
      "type": "constructor"
    },
    {
      "anonymous": false,
      "inputs": [
        {
          "indexed": true,
          "internalType": "address",
          "name": "sender",
          "type": "address"
        },
        {
          "indexed": false,
          "internalType": "uint256",
          "name": "amount",
          "type": "uint256"
        }
      ],
      "name": "Received",
      "type": "event"
    },
    {
      "anonymous": false,
      "inputs": [
        {
          "indexed": false,
          "internalType": "bytes32",
          "name": "requestId",
          "type": "bytes32"
        }
      ],
      "name": "RequestedRandomness",
      "type": "event"
    },
    {
      "anonymous": false,
      "inputs": [
        {
          "indexed": true,
          "internalType": "uint256",
          "name": "gameId",
          "type": "uint256"
        },
        {
          "indexed": false,
          "internalType": "address",
          "name": "player",
          "type": "address"
        },
        {
          "indexed": false,
          "internalType": "uint256",
          "name": "amount",
          "type": "uint256"
        },
        {
          "indexed": false,
          "internalType": "bool",
          "name": "won",
          "type": "bool"
        }
      ],
      "name": "Result",
      "type": "event"
    },
    {
      "anonymous": false,
      "inputs": [
        {
          "indexed": false,
          "internalType": "address",
          "name": "admin",
          "type": "address"
        },
        {
          "indexed": false,
          "internalType": "uint256",
          "name": "amount",
          "type": "uint256"
        }
      ],
      "name": "Withdraw",
      "type": "event"
    },
    {
      "inputs": [],
      "name": "fee",
      "outputs": [
        {
          "internalType": "uint256",
          "name": "",
          "type": "uint256"
        }
      ],
      "stateMutability": "view",
      "type": "function"
    },
    {
      "inputs": [],
      "name": "gameCount",
      "outputs": [
        {
          "internalType": "uint256",
          "name": "",
          "type": "uint256"
        }
      ],
      "stateMutability": "view",
      "type": "function"
    },
    {
      "inputs": [
        {
          "internalType": "uint256",
          "name": "",
          "type": "uint256"
        }
      ],
      "name": "games",
      "outputs": [
        {
          "internalType": "uint256",
          "name": "id",
          "type": "uint256"
        },
        {
          "internalType": "bool",
          "name": "head",
          "type": "bool"
        },
        {
          "internalType": "uint256",
          "name": "amount",
          "type": "uint256"
        },
        {
          "internalType": "address payable",
          "name": "player",
          "type": "address"
        }
      ],
      "stateMutability": "view",
      "type": "function"
    },
    {
      "inputs": [],
      "name": "keyhash",
      "outputs": [
        {
          "internalType": "bytes32",
          "name": "",
          "type": "bytes32"
        }
      ],
      "stateMutability": "view",
      "type": "function"
    },
    {
      "inputs": [
        {
          "internalType": "bool",
          "name": "_head",
          "type": "bool"
        }
      ],
      "name": "play",
      "outputs": [
        {
          "internalType": "uint256",
          "name": "",
          "type": "uint256"
        }
      ],
      "stateMutability": "payable",
      "type": "function"
    },
    {
      "inputs": [
        {
          "internalType": "bytes32",
          "name": "requestId",
          "type": "bytes32"
        },
        {
          "internalType": "uint256",
          "name": "randomness",
          "type": "uint256"
        }
      ],
      "name": "rawFulfillRandomness",
      "outputs": [],
      "stateMutability": "nonpayable",
      "type": "function"
    },
    {
      "inputs": [
        {
          "internalType": "bytes32",
          "name": "",
          "type": "bytes32"
        }
      ],
      "name": "requestIdToGameIdMapping",
      "outputs": [
        {
          "internalType": "uint256",
          "name": "",
          "type": "uint256"
        }
      ],
      "stateMutability": "view",
      "type": "function"
    },
    {
      "inputs": [
        {
          "internalType": "uint256",
          "name": "amount",
          "type": "uint256"
        }
      ],
      "name": "withdrawEther",
      "outputs": [],
      "stateMutability": "payable",
      "type": "function"
    },
    {
      "inputs": [
        {
          "internalType": "uint256",
          "name": "amount",
          "type": "uint256"
        }
      ],
      "name": "withdrawLink",
      "outputs": [],
      "stateMutability": "nonpayable",
      "type": "function"
    },
    {
      "stateMutability": "payable",
      "type": "receive"
    }
  ],
  "bytecode": "60c0604052600060045534801561001557600080fd5b50604051610d49380380610d4983398101604081905261003491610082565b6001600160a01b0393841660a05292909116608052600380546001600160a01b031916331790556001556002556100c5565b80516001600160a01b038116811461007d57600080fd5b919050565b6000806000806080858703121561009857600080fd5b6100a185610066565b93506100af60208601610066565b6040860151606090960151949790965092505050565b60805160a051610c4a6100ff600039600081816104ad01526109360152600081816103d40152818161061b01526109070152610c4a6000f3fe60806040526004361061008a5760003560e01c806369ebe78e1161005957806369ebe78e146101ae5780637a8042bd146101c457806394985ddd146101e4578063c23c87d514610204578063ddca3f431461021757600080fd5b8063117a5b90146100cb5780633bed33ce1461014857806346bd175b1461015d5780634d1975b41461019857600080fd5b366100c65760405134815233907f88a5966d370b9919b20f3e2c13ff65706f196a4e32cc2c12bf57088f885258749060200160405180910390a2005b600080fd5b3480156100d757600080fd5b5061011a6100e6366004610a7d565b6005602052600090815260409020805460018201546002830154600390930154919260ff909116916001600160a01b031684565b604080519485529215156020850152918301526001600160a01b031660608201526080015b60405180910390f35b61015b610156366004610a7d565b61022d565b005b34801561016957600080fd5b5061018a610178366004610a7d565b60066020526000908152604090205481565b60405190815260200161013f565b3480156101a457600080fd5b5061018a60045481565b3480156101ba57600080fd5b5061018a60025481565b3480156101d057600080fd5b5061015b6101df366004610a7d565b610364565b3480156101f057600080fd5b5061015b6101ff366004610a96565b6104a2565b61018a610212366004610ac6565b610528565b34801561022357600080fd5b5061018a60015481565b6003546001600160a01b031633146102865760405162461bcd60e51b815260206004820152601760248201527631b0b63632b91034b9903737ba103a34329030b236b4b760491b60448201526064015b60405180910390fd5b804710156102e05760405162461bcd60e51b815260206004820152602160248201527f42657474696e6747616d653a20696e73756666696369656e742062616c616e636044820152606560f81b606482015260840161027d565b6003546040516001600160a01b039091169082156108fc029083906000818181858888f1935050505015801561031a573d6000803e3d6000fd5b50600354604080516001600160a01b039092168252602082018390527f884edad9ce6fa2440d8a54cc123490eb96d2768479d49ff9c7366125a9424364910160405180910390a150565b6003546001600160a01b031633146103b85760405162461bcd60e51b815260206004820152601760248201527631b0b63632b91034b9903737ba103a34329030b236b4b760491b604482015260640161027d565b60405163a9059cbb60e01b8152336004820152602481018290527f00000000000000000000000000000000000000000000000000000000000000006001600160a01b03169063a9059cbb906044016020604051808303816000875af1158015610425573d6000803e3d6000fd5b505050506040513d601f19601f820116820180604052508101906104499190610aea565b61049f5760405162461bcd60e51b815260206004820152602160248201527f42657474696e6747616d653a204c494e4b207472616e73666572206661696c656044820152601960fa1b606482015260840161027d565b50565b336001600160a01b037f0000000000000000000000000000000000000000000000000000000000000000161461051a5760405162461bcd60e51b815260206004820152601f60248201527f4f6e6c7920565246436f6f7264696e61746f722063616e2066756c66696c6c00604482015260640161027d565b61052482826107e3565b5050565b600066038d7ea4c680003410156105995760405162461bcd60e51b815260206004820152602f60248201527f42657474696e6747616d653a206d696e696d756d20616c6c6f7765642062657460448201526e1034b99018171818189032ba3432b960891b606482015260840161027d565b6105a4346002610b1d565b4710156106035760405162461bcd60e51b815260206004820152602760248201527f42657474696e6747616d653a20696e73756666696369656e74207661756c742060448201526662616c616e636560c81b606482015260840161027d565b6001546040516370a0823160e01b81523060048201527f00000000000000000000000000000000000000000000000000000000000000006001600160a01b0316906370a0823190602401602060405180830381865afa15801561066a573d6000803e3d6000fd5b505050506040513d601f19601f8201168201806040525081019061068e9190610b3c565b10156106e85760405162461bcd60e51b8152602060048201526024808201527f42657474696e6747616d653a20696e73756666696369656e74204c494e4b207460448201526337b5b2b760e11b606482015260840161027d565b600480549060006106f883610b55565b9091555050604080516080810182526004548082528415156020808401918252348486019081523360608601908152600094855260059092529483209351845590516001808501805460ff19169215159290921790915593516002808501919091559051600390930180546001600160a01b0319166001600160a01b039094169390931790925590549154909161078e91610903565b60045460008281526006602090815260409182902092909255518281529192507fe5f5b44d72d4143c278eb745c4acc0695c4a5bc616be5beecf46abe29661780e910160405180910390a15050600454919050565b60006107f0600283610b6e565b6000848152600660209081526040808320548084526005835292819020815160808101835281548152600182015460ff161515938101849052600282015492810192909252600301546001600160a01b0316606082015292159350909190831480156108a9576000826040015160026108699190610b1d565b60608401516040519192506001600160a01b03169082156108fc029083906000818181858888f193505050501580156108a6573d6000803e3d6000fd5b50505b60608281015160408085015181516001600160a01b0390931683526020830152831515828201525185927ff83ba849142075c91a16090145a5ae9453a3db63db6f4d0320e28649ac4316e5928290030190a2505050505050565b60007f00000000000000000000000000000000000000000000000000000000000000006001600160a01b0316634000aea07f000000000000000000000000000000000000000000000000000000000000000084866000604051602001610973929190918252602082015260400190565b6040516020818303038152906040526040518463ffffffff1660e01b81526004016109a093929190610b90565b6020604051808303816000875af11580156109bf573d6000803e3d6000fd5b505050506040513d601f19601f820116820180604052508101906109e39190610aea565b5060008381526020818152604080832054815180840188905280830185905230606082015260808082018390528351808303909101815260a090910190925281519183019190912086845292909152610a3d906001610bfc565b6000858152602081815260409182902092909255805180830187905280820184905281518082038301815260609091019091528051910120949350505050565b600060208284031215610a8f57600080fd5b5035919050565b60008060408385031215610aa957600080fd5b50508035926020909101359150565b801515811461049f57600080fd5b600060208284031215610ad857600080fd5b8135610ae381610ab8565b9392505050565b600060208284031215610afc57600080fd5b8151610ae381610ab8565b634e487b7160e01b600052601160045260246000fd5b6000816000190483118215151615610b3757610b37610b07565b500290565b600060208284031215610b4e57600080fd5b5051919050565b600060018201610b6757610b67610b07565b5060010190565b600082610b8b57634e487b7160e01b600052601260045260246000fd5b500690565b60018060a01b038416815260006020848184015260606040840152835180606085015260005b81811015610bd257858101830151858201608001528201610bb6565b81811115610be4576000608083870101525b50601f01601f19169290920160800195945050505050565b60008219821115610c0f57610c0f610b07565b50019056fea26469706673582212202f6f8d10002c73e48b3890e3bb53572d60fed5d8d7f3394866de4f2b0997b01b64736f6c634300080f0033",
  "bytecodeSha1": "06aac035d4b1d0ac21993b0affc81ca5e229cdbf",
  "compiler": {
    "evm_version": "istanbul",
    "optimizer": {
      "enabled": true,
      "runs": 200
    },
    "version": "0.8.15+commit.e14f2714"
  },
  "contractName": "BettingGame",
  "language": "Solidity",
  "natspec": {
    "kind": "dev",
    "methods": {},
    "version": 1
  },
  "opcodes": "PUSH1 0x80 PUSH1 0x40 MSTORE PUSH1 0x4 CALLDATASIZE LT PUSH2 0x8A JUMPI PUSH1 0x0 CALLDATALOAD PUSH1 0xE0 SHR DUP1 PUSH4 0x69EBE78E GT PUSH2 0x59 JUMPI DUP1 PUSH4 0x69EBE78E EQ PUSH2 0x1AE JUMPI DUP1 PUSH4 0x7A8042BD EQ PUSH2 0x1C4 JUMPI DUP1 PUSH4 0x94985DDD EQ PUSH2 0x1E4 JUMPI DUP1 PUSH4 0xC23C87D5 EQ PUSH2 0x204 JUMPI DUP1 PUSH4 0xDDCA3F43 EQ PUSH2 0x217 JUMPI PUSH1 0x0 DUP1 REVERT JUMPDEST DUP1 PUSH4 0x117A5B90 EQ PUSH2 0xCB JUMPI DUP1 PUSH4 0x3BED33CE EQ PUSH2 0x148 JUMPI DUP1 PUSH4 0x46BD175B EQ PUSH2 0x15D JUMPI DUP1 PUSH4 0x4D1975B4 EQ PUSH2 0x198 JUMPI PUSH1 0x0 DUP1 REVERT JUMPDEST CALLDATASIZE PUSH2 0xC6 JUMPI PUSH1 0x40 MLOAD CALLVALUE DUP2 MSTORE CALLER SWAP1 PUSH32 0x88A5966D370B9919B20F3E2C13FF65706F196A4E32CC2C12BF57088F88525874 SWAP1 PUSH1 0x20 ADD PUSH1 0x40 MLOAD DUP1 SWAP2 SUB SWAP1 LOG2 STOP JUMPDEST PUSH1 0x0 DUP1 REVERT JUMPDEST CALLVALUE DUP1 ISZERO PUSH2 0xD7 JUMPI PUSH1 0x0 DUP1 REVERT JUMPDEST POP PUSH2 0x11A PUSH2 0xE6 CALLDATASIZE PUSH1 0x4 PUSH2 0xA7D JUMP JUMPDEST PUSH1 0x5 PUSH1 0x20 MSTORE PUSH1 0x0 SWAP1 DUP2 MSTORE PUSH1 0x40 SWAP1 KECCAK256 DUP1 SLOAD PUSH1 0x1 DUP3 ADD SLOAD PUSH1 0x2 DUP4 ADD SLOAD PUSH1 0x3 SWAP1 SWAP4 ADD SLOAD SWAP2 SWAP3 PUSH1 0xFF SWAP1 SWAP2 AND SWAP2 PUSH1 0x1 PUSH1 0x1 PUSH1 0xA0 SHL SUB AND DUP5 JUMP JUMPDEST PUSH1 0x40 DUP1 MLOAD SWAP5 DUP6 MSTORE SWAP3 ISZERO ISZERO PUSH1 0x20 DUP6 ADD MSTORE SWAP2 DUP4 ADD MSTORE PUSH1 0x1 PUSH1 0x1 PUSH1 0xA0 SHL SUB AND PUSH1 0x60 DUP3 ADD MSTORE PUSH1 0x80 ADD JUMPDEST PUSH1 0x40 MLOAD DUP1 SWAP2 SUB SWAP1 RETURN JUMPDEST PUSH2 0x15B PUSH2 0x156 CALLDATASIZE PUSH1 0x4 PUSH2 0xA7D JUMP JUMPDEST PUSH2 0x22D JUMP JUMPDEST STOP JUMPDEST CALLVALUE DUP1 ISZERO PUSH2 0x169 JUMPI PUSH1 0x0 DUP1 REVERT JUMPDEST POP PUSH2 0x18A PUSH2 0x178 CALLDATASIZE PUSH1 0x4 PUSH2 0xA7D JUMP JUMPDEST PUSH1 0x6 PUSH1 0x20 MSTORE PUSH1 0x0 SWAP1 DUP2 MSTORE PUSH1 0x40 SWAP1 KECCAK256 SLOAD DUP2 JUMP JUMPDEST PUSH1 0x40 MLOAD SWAP1 DUP2 MSTORE PUSH1 0x20 ADD PUSH2 0x13F JUMP JUMPDEST CALLVALUE DUP1 ISZERO PUSH2 0x1A4 JUMPI PUSH1 0x0 DUP1 REVERT JUMPDEST POP PUSH2 0x18A PUSH1 0x4 SLOAD DUP2 JUMP JUMPDEST CALLVALUE DUP1 ISZERO PUSH2 0x1BA JUMPI PUSH1 0x0 DUP1 REVERT JUMPDEST POP PUSH2 0x18A PUSH1 0x2 SLOAD DUP2 JUMP JUMPDEST CALLVALUE DUP1 ISZERO PUSH2 0x1D0 JUMPI PUSH1 0x0 DUP1 REVERT JUMPDEST POP PUSH2 0x15B PUSH2 0x1DF CALLDATASIZE PUSH1 0x4 PUSH2 0xA7D JUMP JUMPDEST PUSH2 0x364 JUMP JUMPDEST CALLVALUE DUP1 ISZERO PUSH2 0x1F0 JUMPI PUSH1 0x0 DUP1 REVERT JUMPDEST POP PUSH2 0x15B PUSH2 0x1FF CALLDATASIZE PUSH1 0x4 PUSH2 0xA96 JUMP JUMPDEST PUSH2 0x4A2 JUMP JUMPDEST PUSH2 0x18A PUSH2 0x212 CALLDATASIZE PUSH1 0x4 PUSH2 0xAC6 JUMP JUMPDEST PUSH2 0x528 JUMP JUMPDEST CALLVALUE DUP1 ISZERO PUSH2 0x223 JUMPI PUSH1 0x0 DUP1 REVERT JUMPDEST POP PUSH2 0x18A PUSH1 0x1 SLOAD DUP2 JUMP JUMPDEST PUSH1 0x3 SLOAD PUSH1 0x1 PUSH1 0x1 PUSH1 0xA0 SHL SUB AND CALLER EQ PUSH2 0x286 JUMPI PUSH1 0x40 MLOAD PUSH3 0x461BCD PUSH1 0xE5 SHL DUP2 MSTORE PUSH1 0x20 PUSH1 0x4 DUP3 ADD MSTORE PUSH1 0x17 PUSH1 0x24 DUP3 ADD MSTORE PUSH23 0x31B0B63632B91034B9903737BA103A34329030B236B4B7 PUSH1 0x49 SHL PUSH1 0x44 DUP3 ADD MSTORE PUSH1 0x64 ADD JUMPDEST PUSH1 0x40 MLOAD DUP1 SWAP2 SUB SWAP1 REVERT JUMPDEST DUP1 SELFBALANCE LT ISZERO PUSH2 0x2E0 JUMPI PUSH1 0x40 MLOAD PUSH3 0x461BCD PUSH1 0xE5 SHL DUP2 MSTORE PUSH1 0x20 PUSH1 0x4 DUP3 ADD MSTORE PUSH1 0x21 PUSH1 0x24 DUP3 ADD MSTORE PUSH32 0x42657474696E6747616D653A20696E73756666696369656E742062616C616E63 PUSH1 0x44 DUP3 ADD MSTORE PUSH1 0x65 PUSH1 0xF8 SHL PUSH1 0x64 DUP3 ADD MSTORE PUSH1 0x84 ADD PUSH2 0x27D JUMP JUMPDEST PUSH1 0x3 SLOAD PUSH1 0x40 MLOAD PUSH1 0x1 PUSH1 0x1 PUSH1 0xA0 SHL SUB SWAP1 SWAP2 AND SWAP1 DUP3 ISZERO PUSH2 0x8FC MUL SWAP1 DUP4 SWAP1 PUSH1 0x0 DUP2 DUP2 DUP2 DUP6 DUP9 DUP9 CALL SWAP4 POP POP POP POP ISZERO DUP1 ISZERO PUSH2 0x31A JUMPI RETURNDATASIZE PUSH1 0x0 DUP1 RETURNDATACOPY RETURNDATASIZE PUSH1 0x0 REVERT JUMPDEST POP PUSH1 0x3 SLOAD PUSH1 0x40 DUP1 MLOAD PUSH1 0x1 PUSH1 0x1 PUSH1 0xA0 SHL SUB SWAP1 SWAP3 AND DUP3 MSTORE PUSH1 0x20 DUP3 ADD DUP4 SWAP1 MSTORE PUSH32 0x884EDAD9CE6FA2440D8A54CC123490EB96D2768479D49FF9C7366125A9424364 SWAP2 ADD PUSH1 0x40 MLOAD DUP1 SWAP2 SUB SWAP1 LOG1 POP JUMP JUMPDEST PUSH1 0x3 SLOAD PUSH1 0x1 PUSH1 0x1 PUSH1 0xA0 SHL SUB AND CALLER EQ PUSH2 0x3B8 JUMPI PUSH1 0x40 MLOAD PUSH3 0x461BCD PUSH1 0xE5 SHL DUP2 MSTORE PUSH1 0x20 PUSH1 0x4 DUP3 ADD MSTORE PUSH1 0x17 PUSH1 0x24 DUP3 ADD MSTORE PUSH23 0x31B0B63632B91034B9903737BA103A34329030B236B4B7 PUSH1 0x49 SHL PUSH1 0x44 DUP3 ADD MSTORE PUSH1 0x64 ADD PUSH2 0x27D JUMP JUMPDEST PUSH1 0x40 MLOAD PUSH4 0xA9059CBB PUSH1 0xE0 SHL DUP2 MSTORE CALLER PUSH1 0x4 DUP3 ADD MSTORE PUSH1 0x24 DUP2 ADD DUP3 SWAP1 MSTORE PUSH32 0x0 PUSH1 0x1 PUSH1 0x1 PUSH1 0xA0 SHL SUB AND SWAP1 PUSH4 0xA9059CBB SWAP1 PUSH1 0x44 ADD PUSH1 0x20 PUSH1 0x40 MLOAD DUP1 DUP4 SUB DUP2 PUSH1 0x0 DUP8 GAS CALL ISZERO DUP1 ISZERO PUSH2 0x425 JUMPI RETURNDATASIZE PUSH1 0x0 DUP1 RETURNDATACOPY RETURNDATASIZE PUSH1 0x0 REVERT JUMPDEST POP POP POP POP PUSH1 0x40 MLOAD RETURNDATASIZE PUSH1 0x1F NOT PUSH1 0x1F DUP3 ADD AND DUP3 ADD DUP1 PUSH1 0x40 MSTORE POP DUP2 ADD SWAP1 PUSH2 0x449 SWAP2 SWAP1 PUSH2 0xAEA JUMP JUMPDEST PUSH2 0x49F JUMPI PUSH1 0x40 MLOAD PUSH3 0x461BCD PUSH1 0xE5 SHL DUP2 MSTORE PUSH1 0x20 PUSH1 0x4 DUP3 ADD MSTORE PUSH1 0x21 PUSH1 0x24 DUP3 ADD MSTORE PUSH32 0x42657474696E6747616D653A204C494E4B207472616E73666572206661696C65 PUSH1 0x44 DUP3 ADD MSTORE PUSH1 0x19 PUSH1 0xFA SHL PUSH1 0x64 DUP3 ADD MSTORE PUSH1 0x84 ADD PUSH2 0x27D JUMP JUMPDEST POP JUMP JUMPDEST CALLER PUSH1 0x1 PUSH1 0x1 PUSH1 0xA0 SHL SUB PUSH32 0x0 AND EQ PUSH2 0x51A JUMPI PUSH1 0x40 MLOAD PUSH3 0x461BCD PUSH1 0xE5 SHL DUP2 MSTORE PUSH1 0x20 PUSH1 0x4 DUP3 ADD MSTORE PUSH1 0x1F PUSH1 0x24 DUP3 ADD MSTORE PUSH32 0x4F6E6C7920565246436F6F7264696E61746F722063616E2066756C66696C6C00 PUSH1 0x44 DUP3 ADD MSTORE PUSH1 0x64 ADD PUSH2 0x27D JUMP JUMPDEST PUSH2 0x524 DUP3 DUP3 PUSH2 0x7E3 JUMP JUMPDEST POP POP JUMP JUMPDEST PUSH1 0x0 PUSH7 0x38D7EA4C68000 CALLVALUE LT ISZERO PUSH2 0x599 JUMPI PUSH1 0x40 MLOAD PUSH3 0x461BCD PUSH1 0xE5 SHL DUP2 MSTORE PUSH1 0x20 PUSH1 0x4 DUP3 ADD MSTORE PUSH1 0x2F PUSH1 0x24 DUP3 ADD MSTORE PUSH32 0x42657474696E6747616D653A206D696E696D756D20616C6C6F77656420626574 PUSH1 0x44 DUP3 ADD MSTORE PUSH15 0x1034B99018171818189032BA3432B9 PUSH1 0x89 SHL PUSH1 0x64 DUP3 ADD MSTORE PUSH1 0x84 ADD PUSH2 0x27D JUMP JUMPDEST PUSH2 0x5A4 CALLVALUE PUSH1 0x2 PUSH2 0xB1D JUMP JUMPDEST SELFBALANCE LT ISZERO PUSH2 0x603 JUMPI PUSH1 0x40 MLOAD PUSH3 0x461BCD PUSH1 0xE5 SHL DUP2 MSTORE PUSH1 0x20 PUSH1 0x4 DUP3 ADD MSTORE PUSH1 0x27 PUSH1 0x24 DUP3 ADD MSTORE PUSH32 0x42657474696E6747616D653A20696E73756666696369656E74207661756C7420 PUSH1 0x44 DUP3 ADD MSTORE PUSH7 0x62616C616E6365 PUSH1 0xC8 SHL PUSH1 0x64 DUP3 ADD MSTORE PUSH1 0x84 ADD PUSH2 0x27D JUMP JUMPDEST PUSH1 0x1 SLOAD PUSH1 0x40 MLOAD PUSH4 0x70A08231 PUSH1 0xE0 SHL DUP2 MSTORE ADDRESS PUSH1 0x4 DUP3 ADD MSTORE PUSH32 0x0 PUSH1 0x1 PUSH1 0x1 PUSH1 0xA0 SHL SUB AND SWAP1 PUSH4 0x70A08231 SWAP1 PUSH1 0x24 ADD PUSH1 0x20 PUSH1 0x40 MLOAD DUP1 DUP4 SUB DUP2 DUP7 GAS STATICCALL ISZERO DUP1 ISZERO PUSH2 0x66A JUMPI RETURNDATASIZE PUSH1 0x0 DUP1 RETURNDATACOPY RETURNDATASIZE PUSH1 0x0 REVERT JUMPDEST POP POP POP POP PUSH1 0x40 MLOAD RETURNDATASIZE PUSH1 0x1F NOT PUSH1 0x1F DUP3 ADD AND DUP3 ADD DUP1 PUSH1 0x40 MSTORE POP DUP2 ADD SWAP1 PUSH2 0x68E SWAP2 SWAP1 PUSH2 0xB3C JUMP JUMPDEST LT ISZERO PUSH2 0x6E8 JUMPI PUSH1 0x40 MLOAD PUSH3 0x461BCD PUSH1 0xE5 SHL DUP2 MSTORE PUSH1 0x20 PUSH1 0x4 DUP3 ADD MSTORE PUSH1 0x24 DUP1 DUP3 ADD MSTORE PUSH32 0x42657474696E6747616D653A20696E73756666696369656E74204C494E4B2074 PUSH1 0x44 DUP3 ADD MSTORE PUSH4 0x37B5B2B7 PUSH1 0xE1 SHL PUSH1 0x64 DUP3 ADD MSTORE PUSH1 0x84 ADD PUSH2 0x27D JUMP JUMPDEST PUSH1 0x4 DUP1 SLOAD SWAP1 PUSH1 0x0 PUSH2 0x6F8 DUP4 PUSH2 0xB55 JUMP JUMPDEST SWAP1 SWAP2 SSTORE POP POP PUSH1 0x40 DUP1 MLOAD PUSH1 0x80 DUP2 ADD DUP3 MSTORE PUSH1 0x4 SLOAD DUP1 DUP3 MSTORE DUP5 ISZERO ISZERO PUSH1 0x20 DUP1 DUP5 ADD SWAP2 DUP3 MSTORE CALLVALUE DUP5 DUP7 ADD SWAP1 DUP2 MSTORE CALLER PUSH1 0x60 DUP7 ADD SWAP1 DUP2 MSTORE PUSH1 0x0 SWAP5 DUP6 MSTORE PUSH1 0x5 SWAP1 SWAP3 MSTORE SWAP5 DUP4 KECCAK256 SWAP4 MLOAD DUP5 SSTORE SWAP1 MLOAD PUSH1 0x1 DUP1 DUP6 ADD DUP1 SLOAD PUSH1 0xFF NOT AND SWAP3 ISZERO ISZERO SWAP3 SWAP1 SWAP3 OR SWAP1 SWAP2 SSTORE SWAP4 MLOAD PUSH1 0x2 DUP1 DUP6 ADD SWAP2 SWAP1 SWAP2 SSTORE SWAP1 MLOAD PUSH1 0x3 SWAP1 SWAP4 ADD DUP1 SLOAD PUSH1 0x1 PUSH1 0x1 PUSH1 0xA0 SHL SUB NOT AND PUSH1 0x1 PUSH1 0x1 PUSH1 0xA0 SHL SUB SWAP1 SWAP5 AND SWAP4 SWAP1 SWAP4 OR SWAP1 SWAP3 SSTORE SWAP1 SLOAD SWAP2 SLOAD SWAP1 SWAP2 PUSH2 0x78E SWAP2 PUSH2 0x903 JUMP JUMPDEST PUSH1 0x4 SLOAD PUSH1 0x0 DUP3 DUP2 MSTORE PUSH1 0x6 PUSH1 0x20 SWAP1 DUP2 MSTORE PUSH1 0x40 SWAP2 DUP3 SWAP1 KECCAK256 SWAP3 SWAP1 SWAP3 SSTORE MLOAD DUP3 DUP2 MSTORE SWAP2 SWAP3 POP PUSH32 0xE5F5B44D72D4143C278EB745C4ACC0695C4A5BC616BE5BEECF46ABE29661780E SWAP2 ADD PUSH1 0x40 MLOAD DUP1 SWAP2 SUB SWAP1 LOG1 POP POP PUSH1 0x4 SLOAD SWAP2 SWAP1 POP JUMP JUMPDEST PUSH1 0x0 PUSH2 0x7F0 PUSH1 0x2 DUP4 PUSH2 0xB6E JUMP JUMPDEST PUSH1 0x0 DUP5 DUP2 MSTORE PUSH1 0x6 PUSH1 0x20 SWAP1 DUP2 MSTORE PUSH1 0x40 DUP1 DUP4 KECCAK256 SLOAD DUP1 DUP5 MSTORE PUSH1 0x5 DUP4 MSTORE SWAP3 DUP2 SWAP1 KECCAK256 DUP2 MLOAD PUSH1 0x80 DUP2 ADD DUP4 MSTORE DUP2 SLOAD DUP2 MSTORE PUSH1 0x1 DUP3 ADD SLOAD PUSH1 0xFF AND ISZERO ISZERO SWAP4 DUP2 ADD DUP5 SWAP1 MSTORE PUSH1 0x2 DUP3 ADD SLOAD SWAP3 DUP2 ADD SWAP3 SWAP1 SWAP3 MSTORE PUSH1 0x3 ADD SLOAD PUSH1 0x1 PUSH1 0x1 PUSH1 0xA0 SHL SUB AND PUSH1 0x60 DUP3 ADD MSTORE SWAP3 ISZERO SWAP4 POP SWAP1 SWAP2 SWAP1 DUP4 EQ DUP1 ISZERO PUSH2 0x8A9 JUMPI PUSH1 0x0 DUP3 PUSH1 0x40 ADD MLOAD PUSH1 0x2 PUSH2 0x869 SWAP2 SWAP1 PUSH2 0xB1D JUMP JUMPDEST PUSH1 0x60 DUP5 ADD MLOAD PUSH1 0x40 MLOAD SWAP2 SWAP3 POP PUSH1 0x1 PUSH1 0x1 PUSH1 0xA0 SHL SUB AND SWAP1 DUP3 ISZERO PUSH2 0x8FC MUL SWAP1 DUP4 SWAP1 PUSH1 0x0 DUP2 DUP2 DUP2 DUP6 DUP9 DUP9 CALL SWAP4 POP POP POP POP ISZERO DUP1 ISZERO PUSH2 0x8A6 JUMPI RETURNDATASIZE PUSH1 0x0 DUP1 RETURNDATACOPY RETURNDATASIZE PUSH1 0x0 REVERT JUMPDEST POP POP JUMPDEST PUSH1 0x60 DUP3 DUP2 ADD MLOAD PUSH1 0x40 DUP1 DUP6 ADD MLOAD DUP2 MLOAD PUSH1 0x1 PUSH1 0x1 PUSH1 0xA0 SHL SUB SWAP1 SWAP4 AND DUP4 MSTORE PUSH1 0x20 DUP4 ADD MSTORE DUP4 ISZERO ISZERO DUP3 DUP3 ADD MSTORE MLOAD DUP6 SWAP3 PUSH32 0xF83BA849142075C91A16090145A5AE9453A3DB63DB6F4D0320E28649AC4316E5 SWAP3 DUP3 SWAP1 SUB ADD SWAP1 LOG2 POP POP POP POP POP POP JUMP JUMPDEST PUSH1 0x0 PUSH32 0x0 PUSH1 0x1 PUSH1 0x1 PUSH1 0xA0 SHL SUB AND PUSH4 0x4000AEA0 PUSH32 0x0 DUP5 DUP7 PUSH1 0x0 PUSH1 0x40 MLOAD PUSH1 0x20 ADD PUSH2 0x973 SWAP3 SWAP2 SWAP1 SWAP2 DUP3 MSTORE PUSH1 0x20 DUP3 ADD MSTORE PUSH1 0x40 ADD SWAP1 JUMP JUMPDEST PUSH1 0x40 MLOAD PUSH1 0x20 DUP2 DUP4 SUB SUB DUP2 MSTORE SWAP1 PUSH1 0x40 MSTORE PUSH1 0x40 MLOAD DUP5 PUSH4 0xFFFFFFFF AND PUSH1 0xE0 SHL DUP2 MSTORE PUSH1 0x4 ADD PUSH2 0x9A0 SWAP4 SWAP3 SWAP2 SWAP1 PUSH2 0xB90 JUMP JUMPDEST PUSH1 0x20 PUSH1 0x40 MLOAD DUP1 DUP4 SUB DUP2 PUSH1 0x0 DUP8 GAS CALL ISZERO DUP1 ISZERO PUSH2 0x9BF JUMPI RETURNDATASIZE PUSH1 0x0 DUP1 RETURNDATACOPY RETURNDATASIZE PUSH1 0x0 REVERT JUMPDEST POP POP POP POP PUSH1 0x40 MLOAD RETURNDATASIZE PUSH1 0x1F NOT PUSH1 0x1F DUP3 ADD AND DUP3 ADD DUP1 PUSH1 0x40 MSTORE POP DUP2 ADD SWAP1 PUSH2 0x9E3 SWAP2 SWAP1 PUSH2 0xAEA JUMP JUMPDEST POP PUSH1 0x0 DUP4 DUP2 MSTORE PUSH1 0x20 DUP2 DUP2 MSTORE PUSH1 0x40 DUP1 DUP4 KECCAK256 SLOAD DUP2 MLOAD DUP1 DUP5 ADD DUP9 SWAP1 MSTORE DUP1 DUP4 ADD DUP6 SWAP1 MSTORE ADDRESS PUSH1 0x60 DUP3 ADD MSTORE PUSH1 0x80 DUP1 DUP3 ADD DUP4 SWAP1 MSTORE DUP4 MLOAD DUP1 DUP4 SUB SWAP1 SWAP2 ADD DUP2 MSTORE PUSH1 0xA0 SWAP1 SWAP2 ADD SWAP1 SWAP3 MSTORE DUP2 MLOAD SWAP2 DUP4 ADD SWAP2 SWAP1 SWAP2 KECCAK256 DUP7 DUP5 MSTORE SWAP3 SWAP1 SWAP2 MSTORE PUSH2 0xA3D SWAP1 PUSH1 0x1 PUSH2 0xBFC JUMP JUMPDEST PUSH1 0x0 DUP6 DUP2 MSTORE PUSH1 0x20 DUP2 DUP2 MSTORE PUSH1 0x40 SWAP2 DUP3 SWAP1 KECCAK256 SWAP3 SWAP1 SWAP3 SSTORE DUP1 MLOAD DUP1 DUP4 ADD DUP8 SWAP1 MSTORE DUP1 DUP3 ADD DUP5 SWAP1 MSTORE DUP2 MLOAD DUP1 DUP3 SUB DUP4 ADD DUP2 MSTORE PUSH1 0x60 SWAP1 SWAP2 ADD SWAP1 SWAP2 MSTORE DUP1 MLOAD SWAP2 ADD KECCAK256 SWAP5 SWAP4 POP POP POP POP JUMP JUMPDEST PUSH1 0x0 PUSH1 0x20 DUP3 DUP5 SUB SLT ISZERO PUSH2 0xA8F JUMPI PUSH1 0x0 DUP1 REVERT JUMPDEST POP CALLDATALOAD SWAP2 SWAP1 POP JUMP JUMPDEST PUSH1 0x0 DUP1 PUSH1 0x40 DUP4 DUP6 SUB SLT ISZERO PUSH2 0xAA9 JUMPI PUSH1 0x0 DUP1 REVERT JUMPDEST POP POP DUP1 CALLDATALOAD SWAP3 PUSH1 0x20 SWAP1 SWAP2 ADD CALLDATALOAD SWAP2 POP JUMP JUMPDEST DUP1 ISZERO ISZERO DUP2 EQ PUSH2 0x49F JUMPI PUSH1 0x0 DUP1 REVERT JUMPDEST PUSH1 0x0 PUSH1 0x20 DUP3 DUP5 SUB SLT ISZERO PUSH2 0xAD8 JUMPI PUSH1 0x0 DUP1 REVERT JUMPDEST DUP2 CALLDATALOAD PUSH2 0xAE3 DUP2 PUSH2 0xAB8 JUMP JUMPDEST SWAP4 SWAP3 POP POP POP JUMP JUMPDEST PUSH1 0x0 PUSH1 0x20 DUP3 DUP5 SUB SLT ISZERO PUSH2 0xAFC JUMPI PUSH1 0x0 DUP1 REVERT JUMPDEST DUP2 MLOAD PUSH2 0xAE3 DUP2 PUSH2 0xAB8 JUMP JUMPDEST PUSH4 0x4E487B71 PUSH1 0xE0 SHL PUSH1 0x0 MSTORE PUSH1 0x11 PUSH1 0x4 MSTORE PUSH1 0x24 PUSH1 0x0 REVERT JUMPDEST PUSH1 0x0 DUP2 PUSH1 0x0 NOT DIV DUP4 GT DUP3 ISZERO ISZERO AND ISZERO PUSH2 0xB37 JUMPI PUSH2 0xB37 PUSH2 0xB07 JUMP JUMPDEST POP MUL SWAP1 JUMP JUMPDEST PUSH1 0x0 PUSH1 0x20 DUP3 DUP5 SUB SLT ISZERO PUSH2 0xB4E JUMPI PUSH1 0x0 DUP1 REVERT JUMPDEST POP MLOAD SWAP2 SWAP1 POP JUMP JUMPDEST PUSH1 0x0 PUSH1 0x1 DUP3 ADD PUSH2 0xB67 JUMPI PUSH2 0xB67 PUSH2 0xB07 JUMP JUMPDEST POP PUSH1 0x1 ADD SWAP1 JUMP JUMPDEST PUSH1 0x0 DUP3 PUSH2 0xB8B JUMPI PUSH4 0x4E487B71 PUSH1 0xE0 SHL PUSH1 0x0 MSTORE PUSH1 0x12 PUSH1 0x4 MSTORE PUSH1 0x24 PUSH1 0x0 REVERT JUMPDEST POP MOD SWAP1 JUMP JUMPDEST PUSH1 0x1 DUP1 PUSH1 0xA0 SHL SUB DUP5 AND DUP2 MSTORE PUSH1 0x0 PUSH1 0x20 DUP5 DUP2 DUP5 ADD MSTORE PUSH1 0x60 PUSH1 0x40 DUP5 ADD MSTORE DUP4 MLOAD DUP1 PUSH1 0x60 DUP6 ADD MSTORE PUSH1 0x0 JUMPDEST DUP2 DUP2 LT ISZERO PUSH2 0xBD2 JUMPI DUP6 DUP2 ADD DUP4 ADD MLOAD DUP6 DUP3 ADD PUSH1 0x80 ADD MSTORE DUP3 ADD PUSH2 0xBB6 JUMP JUMPDEST DUP2 DUP2 GT ISZERO PUSH2 0xBE4 JUMPI PUSH1 0x0 PUSH1 0x80 DUP4 DUP8 ADD ADD MSTORE JUMPDEST POP PUSH1 0x1F ADD PUSH1 0x1F NOT AND SWAP3 SWAP1 SWAP3 ADD PUSH1 0x80 ADD SWAP6 SWAP5 POP POP POP POP POP JUMP JUMPDEST PUSH1 0x0 DUP3 NOT DUP3 GT ISZERO PUSH2 0xC0F JUMPI PUSH2 0xC0F PUSH2 0xB07 JUMP JUMPDEST POP ADD SWAP1 JUMP INVALID LOG2 PUSH5 0x6970667358 0x22 SLT KECCAK256 0x2F PUSH16 0x8D10002C73E48B3890E3BB53572D60FE 0xD5 0xD8 0xD7 RETURN CODECOPY BASEFEE PUSH7 0xDE4F2B0997B01B PUSH5 0x736F6C6343 STOP ADDMOD 0xF STOP CALLER ",
  "sha1": "dd53b9b57f4b057483c04284f25a25a2dde2cfff",
  "source": "pragma solidity ^0.8.0;\n\nimport \"@chainlink/contracts/src/v0.8/VRFConsumerBase.sol\";\n\ncontract BettingGame is VRFConsumerBase {\n\n    uint256 public fee;\n    bytes32 public keyhash;\n    address payable admin;\n\n    uint256 public gameCount = 0;\n    mapping(uint256 => Game) public games;\n    mapping(bytes32 => uint256) public requestIdToGameIdMapping;\n\n    struct Game {\n        uint256 id;\n        bool head;\n        uint256 amount;\n        address payable player;\n    }\n\n    event RequestedRandomness(bytes32 requestId);\n    event Withdraw(address admin, uint256 amount);\n    event Received(address indexed sender, uint256 amount);\n    event Result(uint256 indexed gameId, address player, uint256 amount, bool won);\n\n    constructor(\n        address _vrfCoordinator,\n        address _link,\n        uint256 _fee,\n        bytes32 _keyhash\n    ) VRFConsumerBase(_vrfCoordinator, _link) {\n        admin = payable(msg.sender);\n        fee = _fee;\n        keyhash = _keyhash;\n    }\n\n    receive() external payable {\n        emit Received(msg.sender, msg.value);\n    }\n\n    modifier onlyAdmin() {\n        require(msg.sender == admin, 'caller is not the admin');\n        _;\n    }\n\n    // _head represents whether player has chosen Head or not\n    function play(bool _head) public payable returns (uint256){\n        require(msg.value >= 10 ** 15, \"BettingGame: minimum allowed bet is 0.001 ether\");\n        require(address(this).balance >= 2 * msg.value, \"BettingGame: insufficient vault balance\");\n        require(LINK.balanceOf(address(this)) >= fee, \"BettingGame: insufficient LINK token\");\n\n        gameCount++;\n        games[gameCount] = Game(gameCount, _head, msg.value, payable(msg.sender));\n\n        bytes32 requestId = requestRandomness(keyhash, fee);\n        requestIdToGameIdMapping[requestId] = gameCount;\n\n        emit RequestedRandomness(requestId);\n\n        return gameCount;\n    }\n\n    function fulfillRandomness(bytes32 _requestId, uint256 _randomness) internal override {\n        // even number represents Head, odd number represents Tail\n        bool head = _randomness % 2 == 0;\n\n        uint256 gameId = requestIdToGameIdMapping[_requestId];\n        Game memory game = games[gameId];\n        bool playerWon = head == game.head;\n\n        if (playerWon) {\n            uint256 winAmount = 2 * game.amount;\n            game.player.transfer(winAmount);\n        }\n\n        emit Result(gameId, game.player, game.amount, playerWon);\n    }\n\n    function withdrawLink(uint256 amount) external onlyAdmin {\n        require(LINK.transfer(msg.sender, amount), \"BettingGame: LINK transfer failed\");\n    }\n\n    function withdrawEther(uint256 amount) external payable onlyAdmin {\n        require(address(this).balance >= amount, \"BettingGame: insufficient balance\");\n        admin.transfer(amount);\n\n        emit Withdraw(admin, amount);\n    }\n}\n",
  "sourcePath": "contracts/BettingGame.sol",
  "type": "contract"
}